{
  "_format": "hh-sol-artifact-1",
  "contractName": "TaxiManagement",
  "sourceName": "contracts/TaxiApp.sol",
  "abi": [
    {
      "inputs": [
        {
          "internalType": "contract IERC20",
          "name": "_cUSDAddress",
          "type": "address"
        }
      ],
      "stateMutability": "nonpayable",
      "type": "constructor"
    },
    {
      "anonymous": false,
      "inputs": [
        {
          "indexed": true,
          "internalType": "address",
          "name": "passenger",
          "type": "address"
        },
        {
          "indexed": false,
          "internalType": "uint256",
          "name": "amount",
          "type": "uint256"
        }
      ],
      "name": "FundsToppedUp",
      "type": "event"
    },
    {
      "anonymous": false,
      "inputs": [
        {
          "indexed": true,
          "internalType": "uint256",
          "name": "routeId",
          "type": "uint256"
        },
        {
          "indexed": false,
          "internalType": "string",
          "name": "startLocation",
          "type": "string"
        },
        {
          "indexed": false,
          "internalType": "string",
          "name": "endLocation",
          "type": "string"
        },
        {
          "indexed": false,
          "internalType": "uint256",
          "name": "costPerSeat",
          "type": "uint256"
        },
        {
          "indexed": true,
          "internalType": "uint256",
          "name": "taxiOwnerId",
          "type": "uint256"
        }
      ],
      "name": "RouteAdded",
      "type": "event"
    },
    {
      "anonymous": false,
      "inputs": [
        {
          "indexed": true,
          "internalType": "string",
          "name": "licensePlate",
          "type": "string"
        },
        {
          "indexed": true,
          "internalType": "uint256",
          "name": "routeId",
          "type": "uint256"
        },
        {
          "indexed": true,
          "internalType": "uint256",
          "name": "taxiOwnerId",
          "type": "uint256"
        },
        {
          "indexed": false,
          "internalType": "string",
          "name": "taxiType",
          "type": "string"
        }
      ],
      "name": "TaxiAdded",
      "type": "event"
    },
    {
      "anonymous": false,
      "inputs": [
        {
          "indexed": true,
          "internalType": "uint256",
          "name": "tripId",
          "type": "uint256"
        },
        {
          "indexed": true,
          "internalType": "address",
          "name": "passenger",
          "type": "address"
        },
        {
          "indexed": true,
          "internalType": "string",
          "name": "taxiLicensePlate",
          "type": "string"
        },
        {
          "indexed": false,
          "internalType": "uint256",
          "name": "routeId",
          "type": "uint256"
        },
        {
          "indexed": false,
          "internalType": "uint256",
          "name": "numberOfSeats",
          "type": "uint256"
        },
        {
          "indexed": false,
          "internalType": "uint256",
          "name": "totalCost",
          "type": "uint256"
        }
      ],
      "name": "TripCreated",
      "type": "event"
    },
    {
      "inputs": [
        {
          "internalType": "string",
          "name": "_startLocation",
          "type": "string"
        },
        {
          "internalType": "string",
          "name": "_endLocation",
          "type": "string"
        },
        {
          "internalType": "uint256",
          "name": "_costPerSeat",
          "type": "uint256"
        }
      ],
      "name": "addRoute",
      "outputs": [],
      "stateMutability": "nonpayable",
      "type": "function"
    },
    {
      "inputs": [
        {
          "internalType": "string",
          "name": "_licensePlate",
          "type": "string"
        },
        {
          "internalType": "uint256",
          "name": "_routeId",
          "type": "uint256"
        },
        {
          "internalType": "string",
          "name": "_taxiType",
          "type": "string"
        },
        {
          "internalType": "uint256",
          "name": "_numberOfSeats",
          "type": "uint256"
        }
      ],
      "name": "addTaxi",
      "outputs": [],
      "stateMutability": "nonpayable",
      "type": "function"
    },
    {
      "inputs": [],
      "name": "cUSD",
      "outputs": [
        {
          "internalType": "contract IERC20",
          "name": "",
          "type": "address"
        }
      ],
      "stateMutability": "view",
      "type": "function"
    },
    {
      "inputs": [
        {
          "internalType": "string",
          "name": "_taxiLicensePlate",
          "type": "string"
        },
        {
          "internalType": "uint256",
          "name": "_routeId",
          "type": "uint256"
        },
        {
          "internalType": "uint256",
          "name": "_numberOfSeats",
          "type": "uint256"
        }
      ],
      "name": "createTrip",
      "outputs": [],
      "stateMutability": "payable",
      "type": "function"
    },
    {
      "inputs": [],
      "name": "getPassengerBalance",
      "outputs": [
        {
          "internalType": "uint256",
          "name": "",
          "type": "uint256"
        }
      ],
      "stateMutability": "view",
      "type": "function"
    },
    {
      "inputs": [],
      "name": "getPassengerCUSDTokenBalance",
      "outputs": [
        {
          "internalType": "uint256",
          "name": "",
          "type": "uint256"
        }
      ],
      "stateMutability": "view",
      "type": "function"
    },
    {
      "inputs": [
        {
          "internalType": "address",
          "name": "",
          "type": "address"
        }
      ],
      "name": "isTaxiOwner",
      "outputs": [
        {
          "internalType": "bool",
          "name": "",
          "type": "bool"
        }
      ],
      "stateMutability": "view",
      "type": "function"
    },
    {
      "inputs": [
        {
          "internalType": "address",
          "name": "",
          "type": "address"
        }
      ],
      "name": "passengerBalances",
      "outputs": [
        {
          "internalType": "uint256",
          "name": "",
          "type": "uint256"
        }
      ],
      "stateMutability": "view",
      "type": "function"
    },
    {
      "inputs": [
        {
          "internalType": "string",
          "name": "_name",
          "type": "string"
        },
        {
          "internalType": "string",
          "name": "_phone",
          "type": "string"
        }
      ],
      "name": "registerTaxiOwner",
      "outputs": [],
      "stateMutability": "nonpayable",
      "type": "function"
    },
    {
      "inputs": [],
      "name": "routeCount",
      "outputs": [
        {
          "internalType": "uint256",
          "name": "",
          "type": "uint256"
        }
      ],
      "stateMutability": "view",
      "type": "function"
    },
    {
      "inputs": [
        {
          "internalType": "uint256",
          "name": "",
          "type": "uint256"
        }
      ],
      "name": "routes",
      "outputs": [
        {
          "internalType": "string",
          "name": "startLocation",
          "type": "string"
        },
        {
          "internalType": "string",
          "name": "endLocation",
          "type": "string"
        },
        {
          "internalType": "uint256",
          "name": "costPerSeat",
          "type": "uint256"
        },
        {
          "internalType": "uint256",
          "name": "taxiOwnerId",
          "type": "uint256"
        }
      ],
      "stateMutability": "view",
      "type": "function"
    },
    {
      "inputs": [],
      "name": "taxiOwnerCount",
      "outputs": [
        {
          "internalType": "uint256",
          "name": "",
          "type": "uint256"
        }
      ],
      "stateMutability": "view",
      "type": "function"
    },
    {
      "inputs": [
        {
          "internalType": "uint256",
          "name": "",
          "type": "uint256"
        }
      ],
      "name": "taxiOwners",
      "outputs": [
        {
          "internalType": "string",
          "name": "name",
          "type": "string"
        },
        {
          "internalType": "address",
          "name": "walletAddress",
          "type": "address"
        },
        {
          "internalType": "string",
          "name": "phone",
          "type": "string"
        }
      ],
      "stateMutability": "view",
      "type": "function"
    },
    {
      "inputs": [
        {
          "internalType": "string",
          "name": "",
          "type": "string"
        }
      ],
      "name": "taxis",
      "outputs": [
        {
          "internalType": "string",
          "name": "licensePlate",
          "type": "string"
        },
        {
          "internalType": "uint256",
          "name": "taxiOwnerId",
          "type": "uint256"
        },
        {
          "internalType": "uint256",
          "name": "routeId",
          "type": "uint256"
        },
        {
          "internalType": "string",
          "name": "taxiType",
          "type": "string"
        },
        {
          "internalType": "uint256",
          "name": "numberOfSeats",
          "type": "uint256"
        }
      ],
      "stateMutability": "view",
      "type": "function"
    },
    {
      "inputs": [],
      "name": "topUp",
      "outputs": [],
      "stateMutability": "payable",
      "type": "function"
    },
    {
      "inputs": [],
      "name": "tripCount",
      "outputs": [
        {
          "internalType": "uint256",
          "name": "",
          "type": "uint256"
        }
      ],
      "stateMutability": "view",
      "type": "function"
    },
    {
      "inputs": [
        {
          "internalType": "uint256",
          "name": "",
          "type": "uint256"
        }
      ],
      "name": "trips",
      "outputs": [
        {
          "internalType": "address",
          "name": "passenger",
          "type": "address"
        },
        {
          "internalType": "string",
          "name": "taxiLicensePlate",
          "type": "string"
        },
        {
          "internalType": "uint256",
          "name": "routeId",
          "type": "uint256"
        },
        {
          "internalType": "uint256",
          "name": "numberOfSeats",
          "type": "uint256"
        },
        {
          "internalType": "uint256",
          "name": "totalCost",
          "type": "uint256"
        }
      ],
      "stateMutability": "view",
      "type": "function"
    },
    {
      "stateMutability": "payable",
      "type": "receive"
    }
  ],
  "bytecode": "0x60806040523480156200001157600080fd5b5060405162002a6338038062002a638339818101604052810190620000379190620000fc565b806000806101000a81548173ffffffffffffffffffffffffffffffffffffffff021916908373ffffffffffffffffffffffffffffffffffffffff160217905550506200012e565b600080fd5b600073ffffffffffffffffffffffffffffffffffffffff82169050919050565b6000620000b08262000083565b9050919050565b6000620000c482620000a3565b9050919050565b620000d681620000b7565b8114620000e257600080fd5b50565b600081519050620000f681620000cb565b92915050565b6000602082840312156200011557620001146200007e565b5b60006200012584828501620000e5565b91505092915050565b612925806200013e6000396000f3fe6080604052600436106101025760003560e01c80637eedca3211610095578063ba841fe611610064578063ba841fe614610350578063bf539cb41461038d578063dc29f1de146103b8578063e8579fd2146103c2578063f6824a7c146103eb57610109565b80637eedca321461026a578063a0c39bdb14610293578063a6b3020a146102d2578063b4cc7fcf1461031357610109565b80635572710f116100d15780635572710f146101b857806369fc6cbe146101e357806371f581c01461020e578063726f16d81461022a57610109565b8063042daaf21461010e578063076b4b85146101395780631d52a869146101645780631fccf6721461018d57610109565b3661010957005b600080fd5b34801561011a57600080fd5b5061012361042c565b604051610130919061160a565b60405180910390f35b34801561014557600080fd5b5061014e610432565b60405161015b919061160a565b60405180910390f35b34801561017057600080fd5b5061018b6004803603810190610186919061177f565b6104d4565b005b34801561019957600080fd5b506101a2610691565b6040516101af9190611876565b60405180910390f35b3480156101c457600080fd5b506101cd6106b5565b6040516101da919061160a565b60405180910390f35b3480156101ef57600080fd5b506101f86106fc565b604051610205919061160a565b60405180910390f35b610228600480360381019061022391906118bd565b610702565b005b34801561023657600080fd5b50610251600480360381019061024c919061192c565b610c65565b60405161026194939291906119d8565b60405180910390f35b34801561027657600080fd5b50610291600480360381019061028c9190611a2b565b610da5565b005b34801561029f57600080fd5b506102ba60048036038101906102b5919061192c565b610fd1565b6040516102c993929190611aeb565b60405180910390f35b3480156102de57600080fd5b506102f960048036038101906102f49190611b30565b61112b565b60405161030a959493929190611b79565b60405180910390f35b34801561031f57600080fd5b5061033a60048036038101906103359190611c06565b611287565b6040516103479190611c4e565b60405180910390f35b34801561035c57600080fd5b5061037760048036038101906103729190611c06565b6112a7565b604051610384919061160a565b60405180910390f35b34801561039957600080fd5b506103a26112bf565b6040516103af919061160a565b60405180910390f35b6103c06112c5565b005b3480156103ce57600080fd5b506103e960048036038101906103e49190611c69565b6113ae565b005b3480156103f757600080fd5b50610412600480360381019061040d919061192c565b611513565b604051610423959493929190611cf4565b60405180910390f35b60075481565b60008060009054906101000a900473ffffffffffffffffffffffffffffffffffffffff1673ffffffffffffffffffffffffffffffffffffffff166370a08231336040518263ffffffff1660e01b815260040161048e9190611d4e565b602060405180830381865afa1580156104ab573d6000803e3d6000fd5b505050506040513d601f19601f820116820180604052508101906104cf9190611d7e565b905090565b600660003373ffffffffffffffffffffffffffffffffffffffff1673ffffffffffffffffffffffffffffffffffffffff16815260200190815260200160002060009054906101000a900460ff1615610561576040517f08c379a000000000000000000000000000000000000000000000000000000000815260040161055890611e1d565b60405180910390fd5b6007600081548092919061057490611e6c565b919050555060405180606001604052808381526020013373ffffffffffffffffffffffffffffffffffffffff1681526020018281525060016000600754815260200190815260200160002060008201518160000190816105d491906120b6565b5060208201518160010160006101000a81548173ffffffffffffffffffffffffffffffffffffffff021916908373ffffffffffffffffffffffffffffffffffffffff160217905550604082015181600201908161063191906120b6565b509050506001600660003373ffffffffffffffffffffffffffffffffffffffff1673ffffffffffffffffffffffffffffffffffffffff16815260200190815260200160002060006101000a81548160ff0219169083151502179055505050565b60008054906101000a900473ffffffffffffffffffffffffffffffffffffffff1681565b6000600560003373ffffffffffffffffffffffffffffffffffffffff1673ffffffffffffffffffffffffffffffffffffffff16815260200190815260200160002054905090565b60095481565b60008111610745576040517f08c379a000000000000000000000000000000000000000000000000000000000815260040161073c906121fa565b60405180910390fd5b6002836040516107559190612256565b9081526020016040518091039020600401548111156107a9576040517f08c379a00000000000000000000000000000000000000000000000000000000081526004016107a0906122df565b60405180910390fd5b60008160036000858152602001908152602001600020600201546107cd91906122ff565b90506000600560003373ffffffffffffffffffffffffffffffffffffffff1673ffffffffffffffffffffffffffffffffffffffff1681526020019081526020016000205490506000600160006002886040516108299190612256565b908152602001604051809103902060010154815260200190815260200160002060010160009054906101000a900473ffffffffffffffffffffffffffffffffffffffff16905060008054906101000a900473ffffffffffffffffffffffffffffffffffffffff1673ffffffffffffffffffffffffffffffffffffffff166323b872dd3383866040518463ffffffff1660e01b81526004016108cc93929190612341565b6020604051808303816000875af11580156108eb573d6000803e3d6000fd5b505050506040513d601f19601f8201168201806040525081019061090f91906123a4565b61094e576040517f08c379a00000000000000000000000000000000000000000000000000000000081526004016109459061241d565b60405180910390fd5b82821015610a015760008284610964919061243d565b9050803410156109a9576040517f08c379a00000000000000000000000000000000000000000000000000000000081526004016109a090612509565b60405180910390fd5b34600560003373ffffffffffffffffffffffffffffffffffffffff1673ffffffffffffffffffffffffffffffffffffffff16815260200190815260200160002060008282546109f89190612529565b92505081905550505b82600560003373ffffffffffffffffffffffffffffffffffffffff1673ffffffffffffffffffffffffffffffffffffffff1681526020019081526020016000206000828254610a50919061243d565b9250508190555060008173ffffffffffffffffffffffffffffffffffffffff1684604051610a7d9061258e565b60006040518083038185875af1925050503d8060008114610aba576040519150601f19603f3d011682016040523d82523d6000602084013e610abf565b606091505b5050905080610b03576040517f08c379a0000000000000000000000000000000000000000000000000000000008152600401610afa906125ef565b60405180910390fd5b60006040518060a001604052803373ffffffffffffffffffffffffffffffffffffffff16815260200189815260200188815260200187815260200186815250905060096000815480929190610b5790611e6c565b91905055508060046000600954815260200190815260200160002060008201518160000160006101000a81548173ffffffffffffffffffffffffffffffffffffffff021916908373ffffffffffffffffffffffffffffffffffffffff1602179055506020820151816001019081610bce91906120b6565b5060408201518160020155606082015181600301556080820151816004015590505087604051610bfe9190612256565b60405180910390203373ffffffffffffffffffffffffffffffffffffffff166009547f64bcb8b32e7a0031a6aa2382f9501621a5fe95440255248c2450e810d1ad60f38a8a8a604051610c539392919061260f565b60405180910390a45050505050505050565b6003602052806000526040600020600091509050806000018054610c8890611ee3565b80601f0160208091040260200160405190810160405280929190818152602001828054610cb490611ee3565b8015610d015780601f10610cd657610100808354040283529160200191610d01565b820191906000526020600020905b815481529060010190602001808311610ce457829003601f168201915b505050505090806001018054610d1690611ee3565b80601f0160208091040260200160405190810160405280929190818152602001828054610d4290611ee3565b8015610d8f5780601f10610d6457610100808354040283529160200191610d8f565b820191906000526020600020905b815481529060010190602001808311610d7257829003601f168201915b5050505050908060020154908060030154905084565b600660003373ffffffffffffffffffffffffffffffffffffffff1673ffffffffffffffffffffffffffffffffffffffff16815260200190815260200160002060009054906101000a900460ff16610e31576040517f08c379a0000000000000000000000000000000000000000000000000000000008152600401610e2890612692565b60405180910390fd5b6000600285604051610e439190612256565b90815260200160405180910390206001015414610e95576040517f08c379a0000000000000000000000000000000000000000000000000000000008152600401610e8c90612724565b60405180910390fd5b600083118015610ea757506008548311155b610ee6576040517f08c379a0000000000000000000000000000000000000000000000000000000008152600401610edd90612790565b60405180910390fd5b6040518060a00160405280858152602001600754815260200184815260200183815260200182815250600285604051610f1f9190612256565b90815260200160405180910390206000820151816000019081610f4291906120b6565b5060208201518160010155604082015181600201556060820151816003019081610f6c91906120b6565b50608082015181600401559050506007548385604051610f8c9190612256565b60405180910390207fc6d387a22522d5b2261768942f2da4a12126f7979714617e878d2f844c4833a585604051610fc391906127b0565b60405180910390a450505050565b6001602052806000526040600020600091509050806000018054610ff490611ee3565b80601f016020809104026020016040519081016040528092919081815260200182805461102090611ee3565b801561106d5780601f106110425761010080835404028352916020019161106d565b820191906000526020600020905b81548152906001019060200180831161105057829003601f168201915b5050505050908060010160009054906101000a900473ffffffffffffffffffffffffffffffffffffffff16908060020180546110a890611ee3565b80601f01602080910402602001604051908101604052809291908181526020018280546110d490611ee3565b80156111215780601f106110f657610100808354040283529160200191611121565b820191906000526020600020905b81548152906001019060200180831161110457829003601f168201915b5050505050905083565b60028180516020810182018051848252602083016020850120818352809550505050505060009150905080600001805461116490611ee3565b80601f016020809104026020016040519081016040528092919081815260200182805461119090611ee3565b80156111dd5780601f106111b2576101008083540402835291602001916111dd565b820191906000526020600020905b8154815290600101906020018083116111c057829003601f168201915b5050505050908060010154908060020154908060030180546111fe90611ee3565b80601f016020809104026020016040519081016040528092919081815260200182805461122a90611ee3565b80156112775780601f1061124c57610100808354040283529160200191611277565b820191906000526020600020905b81548152906001019060200180831161125a57829003601f168201915b5050505050908060040154905085565b60066020528060005260406000206000915054906101000a900460ff1681565b60056020528060005260406000206000915090505481565b60085481565b60003411611308576040517f08c379a00000000000000000000000000000000000000000000000000000000081526004016112ff9061281e565b60405180910390fd5b34600560003373ffffffffffffffffffffffffffffffffffffffff1673ffffffffffffffffffffffffffffffffffffffff16815260200190815260200160002060008282546113579190612529565b925050819055503373ffffffffffffffffffffffffffffffffffffffff167ffe1ab009821c5ce20789a5a700e13589209a18b9690761c703814b349e0ba4a8346040516113a4919061160a565b60405180910390a2565b600660003373ffffffffffffffffffffffffffffffffffffffff1673ffffffffffffffffffffffffffffffffffffffff16815260200190815260200160002060009054906101000a900460ff1661143a576040517f08c379a00000000000000000000000000000000000000000000000000000000081526004016114319061288a565b60405180910390fd5b6008600081548092919061144d90611e6c565b91905055506040518060800160405280848152602001838152602001828152602001600754815250600360006008548152602001908152602001600020600082015181600001908161149f91906120b6565b5060208201518160010190816114b591906120b6565b5060408201518160020155606082015181600301559050506007546008547f6817200262d7e517e3ecd98da36f83e1702e425f643f09b8470448edb3aa9eb5858585604051611506939291906128aa565b60405180910390a3505050565b60046020528060005260406000206000915090508060000160009054906101000a900473ffffffffffffffffffffffffffffffffffffffff169080600101805461155c90611ee3565b80601f016020809104026020016040519081016040528092919081815260200182805461158890611ee3565b80156115d55780601f106115aa576101008083540402835291602001916115d5565b820191906000526020600020905b8154815290600101906020018083116115b857829003601f168201915b5050505050908060020154908060030154908060040154905085565b6000819050919050565b611604816115f1565b82525050565b600060208201905061161f60008301846115fb565b92915050565b6000604051905090565b600080fd5b600080fd5b600080fd5b600080fd5b6000601f19601f8301169050919050565b7f4e487b7100000000000000000000000000000000000000000000000000000000600052604160045260246000fd5b61168c82611643565b810181811067ffffffffffffffff821117156116ab576116aa611654565b5b80604052505050565b60006116be611625565b90506116ca8282611683565b919050565b600067ffffffffffffffff8211156116ea576116e9611654565b5b6116f382611643565b9050602081019050919050565b82818337600083830152505050565b600061172261171d846116cf565b6116b4565b90508281526020810184848401111561173e5761173d61163e565b5b611749848285611700565b509392505050565b600082601f83011261176657611765611639565b5b813561177684826020860161170f565b91505092915050565b600080604083850312156117965761179561162f565b5b600083013567ffffffffffffffff8111156117b4576117b3611634565b5b6117c085828601611751565b925050602083013567ffffffffffffffff8111156117e1576117e0611634565b5b6117ed85828601611751565b9150509250929050565b600073ffffffffffffffffffffffffffffffffffffffff82169050919050565b6000819050919050565b600061183c611837611832846117f7565b611817565b6117f7565b9050919050565b600061184e82611821565b9050919050565b600061186082611843565b9050919050565b61187081611855565b82525050565b600060208201905061188b6000830184611867565b92915050565b61189a816115f1565b81146118a557600080fd5b50565b6000813590506118b781611891565b92915050565b6000806000606084860312156118d6576118d561162f565b5b600084013567ffffffffffffffff8111156118f4576118f3611634565b5b61190086828701611751565b9350506020611911868287016118a8565b9250506040611922868287016118a8565b9150509250925092565b6000602082840312156119425761194161162f565b5b6000611950848285016118a8565b91505092915050565b600081519050919050565b600082825260208201905092915050565b60005b83811015611993578082015181840152602081019050611978565b60008484015250505050565b60006119aa82611959565b6119b48185611964565b93506119c4818560208601611975565b6119cd81611643565b840191505092915050565b600060808201905081810360008301526119f2818761199f565b90508181036020830152611a06818661199f565b9050611a1560408301856115fb565b611a2260608301846115fb565b95945050505050565b60008060008060808587031215611a4557611a4461162f565b5b600085013567ffffffffffffffff811115611a6357611a62611634565b5b611a6f87828801611751565b9450506020611a80878288016118a8565b935050604085013567ffffffffffffffff811115611aa157611aa0611634565b5b611aad87828801611751565b9250506060611abe878288016118a8565b91505092959194509250565b6000611ad5826117f7565b9050919050565b611ae581611aca565b82525050565b60006060820190508181036000830152611b05818661199f565b9050611b146020830185611adc565b8181036040830152611b26818461199f565b9050949350505050565b600060208284031215611b4657611b4561162f565b5b600082013567ffffffffffffffff811115611b6457611b63611634565b5b611b7084828501611751565b91505092915050565b600060a0820190508181036000830152611b93818861199f565b9050611ba260208301876115fb565b611baf60408301866115fb565b8181036060830152611bc1818561199f565b9050611bd060808301846115fb565b9695505050505050565b611be381611aca565b8114611bee57600080fd5b50565b600081359050611c0081611bda565b92915050565b600060208284031215611c1c57611c1b61162f565b5b6000611c2a84828501611bf1565b91505092915050565b60008115159050919050565b611c4881611c33565b82525050565b6000602082019050611c636000830184611c3f565b92915050565b600080600060608486031215611c8257611c8161162f565b5b600084013567ffffffffffffffff811115611ca057611c9f611634565b5b611cac86828701611751565b935050602084013567ffffffffffffffff811115611ccd57611ccc611634565b5b611cd986828701611751565b9250506040611cea868287016118a8565b9150509250925092565b600060a082019050611d096000830188611adc565b8181036020830152611d1b818761199f565b9050611d2a60408301866115fb565b611d3760608301856115fb565b611d4460808301846115fb565b9695505050505050565b6000602082019050611d636000830184611adc565b92915050565b600081519050611d7881611891565b92915050565b600060208284031215611d9457611d9361162f565b5b6000611da284828501611d69565b91505092915050565b7f4164647265737320616c7265616479207265676973746572656420617320612060008201527f74617869206f776e657200000000000000000000000000000000000000000000602082015250565b6000611e07602a83611964565b9150611e1282611dab565b604082019050919050565b60006020820190508181036000830152611e3681611dfa565b9050919050565b7f4e487b7100000000000000000000000000000000000000000000000000000000600052601160045260246000fd5b6000611e77826115f1565b91507fffffffffffffffffffffffffffffffffffffffffffffffffffffffffffffffff8203611ea957611ea8611e3d565b5b600182019050919050565b7f4e487b7100000000000000000000000000000000000000000000000000000000600052602260045260246000fd5b60006002820490506001821680611efb57607f821691505b602082108103611f0e57611f0d611eb4565b5b50919050565b60008190508160005260206000209050919050565b60006020601f8301049050919050565b600082821b905092915050565b600060088302611f767fffffffffffffffffffffffffffffffffffffffffffffffffffffffffffffffff82611f39565b611f808683611f39565b95508019841693508086168417925050509392505050565b6000611fb3611fae611fa9846115f1565b611817565b6115f1565b9050919050565b6000819050919050565b611fcd83611f98565b611fe1611fd982611fba565b848454611f46565b825550505050565b600090565b611ff6611fe9565b612001818484611fc4565b505050565b5b818110156120255761201a600082611fee565b600181019050612007565b5050565b601f82111561206a5761203b81611f14565b61204484611f29565b81016020851015612053578190505b61206761205f85611f29565b830182612006565b50505b505050565b600082821c905092915050565b600061208d6000198460080261206f565b1980831691505092915050565b60006120a6838361207c565b9150826002028217905092915050565b6120bf82611959565b67ffffffffffffffff8111156120d8576120d7611654565b5b6120e28254611ee3565b6120ed828285612029565b600060209050601f831160018114612120576000841561210e578287015190505b612118858261209a565b865550612180565b601f19841661212e86611f14565b60005b8281101561215657848901518255600182019150602085019450602081019050612131565b86831015612173578489015161216f601f89168261207c565b8355505b6001600288020188555050505b505050505050565b7f4e756d626572206f66207365617473206d75737420626520677265617465722060008201527f7468616e20300000000000000000000000000000000000000000000000000000602082015250565b60006121e4602683611964565b91506121ef82612188565b604082019050919050565b60006020820190508181036000830152612213816121d7565b9050919050565b600081905092915050565b600061223082611959565b61223a818561221a565b935061224a818560208601611975565b80840191505092915050565b60006122628284612225565b915081905092915050565b7f4e756d626572206f66207365617473206578636565647320617661696c61626c60008201527f6520736561747320696e20746865207461786900000000000000000000000000602082015250565b60006122c9603383611964565b91506122d48261226d565b604082019050919050565b600060208201905081810360008301526122f8816122bc565b9050919050565b600061230a826115f1565b9150612315836115f1565b9250828202612323816115f1565b9150828204841483151761233a57612339611e3d565b5b5092915050565b60006060820190506123566000830186611adc565b6123636020830185611adc565b61237060408301846115fb565b949350505050565b61238181611c33565b811461238c57600080fd5b50565b60008151905061239e81612378565b92915050565b6000602082840312156123ba576123b961162f565b5b60006123c88482850161238f565b91505092915050565b7f5061796d656e74206661696c6564000000000000000000000000000000000000600082015250565b6000612407600e83611964565b9150612412826123d1565b602082019050919050565b60006020820190508181036000830152612436816123fa565b9050919050565b6000612448826115f1565b9150612453836115f1565b925082820390508181111561246b5761246a611e3d565b5b92915050565b7f496e73756666696369656e742066756e64732073656e7420666f72207468697360008201527f20747269702e20506c656173652073656e6420746865206164646974696f6e6160208201527f6c20616d6f756e742e0000000000000000000000000000000000000000000000604082015250565b60006124f3604983611964565b91506124fe82612471565b606082019050919050565b60006020820190508181036000830152612522816124e6565b9050919050565b6000612534826115f1565b915061253f836115f1565b925082820190508082111561255757612556611e3d565b5b92915050565b600081905092915050565b50565b600061257860008361255d565b915061258382612568565b600082019050919050565b60006125998261256b565b9150819050919050565b7f5472616e7366657220746f2074617869206f776e6572206661696c6564000000600082015250565b60006125d9601d83611964565b91506125e4826125a3565b602082019050919050565b60006020820190508181036000830152612608816125cc565b9050919050565b600060608201905061262460008301866115fb565b61263160208301856115fb565b61263e60408301846115fb565b949350505050565b7f4f6e6c792074617869206f776e6572732063616e206164642074617869730000600082015250565b600061267c601e83611964565b915061268782612646565b602082019050919050565b600060208201905081810360008301526126ab8161266f565b9050919050565b7f5461786920776974682074686973206c6963656e736520706c61746520616c7260008201527f6561647920657869737473000000000000000000000000000000000000000000602082015250565b600061270e602b83611964565b9150612719826126b2565b604082019050919050565b6000602082019050818103600083015261273d81612701565b9050919050565b7f526f75746520646f6573206e6f74206578697374000000000000000000000000600082015250565b600061277a601483611964565b915061278582612744565b602082019050919050565b600060208201905081810360008301526127a98161276d565b9050919050565b600060208201905081810360008301526127ca818461199f565b905092915050565b7f4d7573742073656e6420457468657220746f20746f7020757000000000000000600082015250565b6000612808601983611964565b9150612813826127d2565b602082019050919050565b60006020820190508181036000830152612837816127fb565b9050919050565b7f4f6e6c792074617869206f776e6572732063616e2061646420726f7574657300600082015250565b6000612874601f83611964565b915061287f8261283e565b602082019050919050565b600060208201905081810360008301526128a381612867565b9050919050565b600060608201905081810360008301526128c4818661199f565b905081810360208301526128d8818561199f565b90506128e760408301846115fb565b94935050505056fea2646970667358221220b84285a25c46e84a9c46ddd2801489b26e2d28412827fc12e9fc1cf89fe4631d64736f6c63430008140033",
  "linkReferences": {},
  "deployedLinkReferences": {}
}